{
  "contracts/AddLiquidity.sol": {
    "LiquidityExamples": {
      "abi": [
        {
          "inputs": [
            {
              "internalType": "contract INonfungiblePositionManager",
              "name": "_nonfungiblePositionManager",
              "type": "address"
            },
            {
              "internalType": "address",
              "name": "_tokenA",
              "type": "address"
            },
            {
              "internalType": "address",
              "name": "_tokenB",
              "type": "address"
            }
          ],
          "stateMutability": "nonpayable",
          "type": "constructor"
        },
        {
          "inputs": [
            {
              "internalType": "uint256",
              "name": "amountA",
              "type": "uint256"
            },
            {
              "internalType": "uint256",
              "name": "amountB",
              "type": "uint256"
            }
          ],
          "name": "mintNewPosition",
          "outputs": [],
          "stateMutability": "nonpayable",
          "type": "function"
        },
        {
          "inputs": [],
          "name": "nonfungiblePositionManager",
          "outputs": [
            {
              "internalType": "contract INonfungiblePositionManager",
              "name": "",
              "type": "address"
            }
          ],
          "stateMutability": "view",
          "type": "function"
        },
        {
          "inputs": [
            {
              "internalType": "address",
              "name": "operator",
              "type": "address"
            },
            {
              "internalType": "address",
              "name": "",
              "type": "address"
            },
            {
              "internalType": "uint256",
              "name": "tokenId",
              "type": "uint256"
            },
            {
              "internalType": "bytes",
              "name": "",
              "type": "bytes"
            }
          ],
          "name": "onERC721Received",
          "outputs": [
            {
              "internalType": "bytes4",
              "name": "",
              "type": "bytes4"
            }
          ],
          "stateMutability": "nonpayable",
          "type": "function"
        },
        {
          "inputs": [],
          "name": "poolFee",
          "outputs": [
            {
              "internalType": "uint24",
              "name": "",
              "type": "uint24"
            }
          ],
          "stateMutability": "view",
          "type": "function"
        },
        {
          "inputs": [],
          "name": "tokenA",
          "outputs": [
            {
              "internalType": "address",
              "name": "",
              "type": "address"
            }
          ],
          "stateMutability": "view",
          "type": "function"
        },
        {
          "inputs": [],
          "name": "tokenB",
          "outputs": [
            {
              "internalType": "address",
              "name": "",
              "type": "address"
            }
          ],
          "stateMutability": "view",
          "type": "function"
        }
      ],
      "evm": {
        "bytecode": {
          "linkReferences": {},
          "object": "60a06040523480156200001157600080fd5b5060405162000fa338038062000fa3833981810160405281019062000037919062000126565b8273ffffffffffffffffffffffffffffffffffffffff1660808173ffffffffffffffffffffffffffffffffffffffff1660601b81525050816000806101000a81548173ffffffffffffffffffffffffffffffffffffffff021916908373ffffffffffffffffffffffffffffffffffffffff16021790555080600160006101000a81548173ffffffffffffffffffffffffffffffffffffffff021916908373ffffffffffffffffffffffffffffffffffffffff160217905550505050620001f8565b6000815190506200010981620001c4565b92915050565b6000815190506200012081620001de565b92915050565b6000806000606084860312156200013c57600080fd5b60006200014c868287016200010f565b93505060206200015f86828701620000f8565b92505060406200017286828701620000f8565b9150509250925092565b60006200018982620001a4565b9050919050565b60006200019d826200017c565b9050919050565b600073ffffffffffffffffffffffffffffffffffffffff82169050919050565b620001cf816200017c565b8114620001db57600080fd5b50565b620001e98162000190565b8114620001f557600080fd5b50565b60805160601c610d7e62000225600039806101925280610234528061028152806103ce5250610d7e6000f3fe608060405234801561001057600080fd5b50600436106100625760003560e01c8063089fe6aa146100675780630fc63d1014610085578063150b7a02146100a35780635f64b55b146100d3578063b44a2722146100f1578063f058ebee1461010f575b600080fd5b61006f61012b565b60405161007c9190610c24565b60405180910390f35b61008d610131565b60405161009a9190610bb7565b60405180910390f35b6100bd60048036038101906100b8919061093f565b610155565b6040516100ca9190610bd2565b60405180910390f35b6100db61016a565b6040516100e89190610bb7565b60405180910390f35b6100f9610190565b6040516101069190610bed565b60405180910390f35b61012960048036038101906101249190610a22565b6101b4565b005b610bb881565b60008054906101000a900473ffffffffffffffffffffffffffffffffffffffff1681565b600063150b7a0260e01b905095945050505050565b600160009054906101000a900473ffffffffffffffffffffffffffffffffffffffff1681565b7f000000000000000000000000000000000000000000000000000000000000000081565b6101e060008054906101000a900473ffffffffffffffffffffffffffffffffffffffff16333085610480565b61020e600160009054906101000a900473ffffffffffffffffffffffffffffffffffffffff16333084610480565b61025960008054906101000a900473ffffffffffffffffffffffffffffffffffffffff167f0000000000000000000000000000000000000000000000000000000000000000846106a0565b6102a6600160009054906101000a900473ffffffffffffffffffffffffffffffffffffffff167f0000000000000000000000000000000000000000000000000000000000000000836106a0565b600060405180610160016040528060008054906101000a900473ffffffffffffffffffffffffffffffffffffffff1673ffffffffffffffffffffffffffffffffffffffff168152602001600160009054906101000a900473ffffffffffffffffffffffffffffffffffffffff1673ffffffffffffffffffffffffffffffffffffffff168152602001610bb862ffffff1681526020017ffffffffffffffffffffffffffffffffffffffffffffffffffffffffffff2761860020b81526020017ffffffffffffffffffffffffffffffffffffffffffffffffffffffffffff2761860000360020b815260200184815260200183815260200160008152602001600081526020013073ffffffffffffffffffffffffffffffffffffffff1681526020014281525090507f000000000000000000000000000000000000000000000000000000000000000073ffffffffffffffffffffffffffffffffffffffff166388316456826040518263ffffffff1660e01b81526004016104259190610c08565b608060405180830381600087803b15801561043f57600080fd5b505af1158015610453573d6000803e3d6000fd5b505050506040513d601f19601f8201168201806040525081019061047791906109bf565b50505050505050565b6000808573ffffffffffffffffffffffffffffffffffffffff166323b872dd60e01b868686604051602401808473ffffffffffffffffffffffffffffffffffffffff1681526020018373ffffffffffffffffffffffffffffffffffffffff1681526020018281526020019350505050604051602081830303815290604052907bffffffffffffffffffffffffffffffffffffffffffffffffffffffff19166020820180517bffffffffffffffffffffffffffffffffffffffffffffffffffffffff83818316178352505050506040518082805190602001908083835b6020831061057f578051825260208201915060208101905060208303925061055c565b6001836020036101000a0380198251168184511680821785525050505050509050019150506000604051808303816000865af19150503d80600081146105e1576040519150601f19603f3d011682016040523d82523d6000602084013e6105e6565b606091505b50915091508180156106265750600081511480610625575080806020019051602081101561061357600080fd5b81019080805190602001909291905050505b5b610698576040517f08c379a00000000000000000000000000000000000000000000000000000000081526004018080602001828103825260038152602001807f535446000000000000000000000000000000000000000000000000000000000081525060200191505060405180910390fd5b505050505050565b6000808473ffffffffffffffffffffffffffffffffffffffff1663095ea7b360e01b8585604051602401808373ffffffffffffffffffffffffffffffffffffffff16815260200182815260200192505050604051602081830303815290604052907bffffffffffffffffffffffffffffffffffffffffffffffffffffffff19166020820180517bffffffffffffffffffffffffffffffffffffffffffffffffffffffff83818316178352505050506040518082805190602001908083835b60208310610781578051825260208201915060208101905060208303925061075e565b6001836020036101000a0380198251168184511680821785525050505050509050019150506000604051808303816000865af19150503d80600081146107e3576040519150601f19603f3d011682016040523d82523d6000602084013e6107e8565b606091505b50915091508180156108285750600081511480610827575080806020019051602081101561081557600080fd5b81019080805190602001909291905050505b5b61089a576040517f08c379a00000000000000000000000000000000000000000000000000000000081526004018080602001828103825260028152602001807f534100000000000000000000000000000000000000000000000000000000000081525060200191505060405180910390fd5b5050505050565b6000813590506108b081610d03565b92915050565b60008083601f8401126108c857600080fd5b8235905067ffffffffffffffff8111156108e157600080fd5b6020830191508360018202830111156108f957600080fd5b9250929050565b60008151905061090f81610d1a565b92915050565b60008135905061092481610d31565b92915050565b60008151905061093981610d31565b92915050565b60008060008060006080868803121561095757600080fd5b6000610965888289016108a1565b9550506020610976888289016108a1565b945050604061098788828901610915565b935050606086013567ffffffffffffffff8111156109a457600080fd5b6109b0888289016108b6565b92509250509295509295909350565b600080600080608085870312156109d557600080fd5b60006109e38782880161092a565b94505060206109f487828801610900565b9350506040610a058782880161092a565b9250506060610a168782880161092a565b91505092959194509250565b60008060408385031215610a3557600080fd5b6000610a4385828601610915565b9250506020610a5485828601610915565b9150509250929050565b610a6781610c3f565b82525050565b610a7681610c3f565b82525050565b610a8581610c51565b82525050565b610a9481610cdf565b82525050565b610aa381610c7d565b82525050565b61016082016000820151610ac06000850182610a5e565b506020820151610ad36020850182610a5e565b506040820151610ae66040850182610b8a565b506060820151610af96060850182610a9a565b506080820151610b0c6080850182610a9a565b5060a0820151610b1f60a0850182610ba8565b5060c0820151610b3260c0850182610ba8565b5060e0820151610b4560e0850182610ba8565b50610100820151610b5a610100850182610ba8565b50610120820151610b6f610120850182610a5e565b50610140820151610b84610140850182610ba8565b50505050565b610b9381610cc6565b82525050565b610ba281610cc6565b82525050565b610bb181610cd5565b82525050565b6000602082019050610bcc6000830184610a6d565b92915050565b6000602082019050610be76000830184610a7c565b92915050565b6000602082019050610c026000830184610a8b565b92915050565b600061016082019050610c1e6000830184610aa9565b92915050565b6000602082019050610c396000830184610b99565b92915050565b6000610c4a82610ca6565b9050919050565b60007fffffffff0000000000000000000000000000000000000000000000000000000082169050919050565b60008160020b9050919050565b60006fffffffffffffffffffffffffffffffff82169050919050565b600073ffffffffffffffffffffffffffffffffffffffff82169050919050565b600062ffffff82169050919050565b6000819050919050565b6000610cea82610cf1565b9050919050565b6000610cfc82610ca6565b9050919050565b610d0c81610c3f565b8114610d1757600080fd5b50565b610d2381610c8a565b8114610d2e57600080fd5b50565b610d3a81610cd5565b8114610d4557600080fd5b5056fea26469706673582212203c77e3c4635a03a12bca8704897113b501ff1d77c625ef605564bbb1c974f7c864736f6c63430007060033",
          "opcodes": "PUSH1 0xA0 PUSH1 0x40 MSTORE CALLVALUE DUP1 ISZERO PUSH3 0x11 JUMPI PUSH1 0x0 DUP1 REVERT JUMPDEST POP PUSH1 0x40 MLOAD PUSH3 0xFA3 CODESIZE SUB DUP1 PUSH3 0xFA3 DUP4 CODECOPY DUP2 DUP2 ADD PUSH1 0x40 MSTORE DUP2 ADD SWAP1 PUSH3 0x37 SWAP2 SWAP1 PUSH3 0x126 JUMP JUMPDEST DUP3 PUSH20 0xFFFFFFFFFFFFFFFFFFFFFFFFFFFFFFFFFFFFFFFF AND PUSH1 0x80 DUP2 PUSH20 0xFFFFFFFFFFFFFFFFFFFFFFFFFFFFFFFFFFFFFFFF AND PUSH1 0x60 SHL DUP2 MSTORE POP POP DUP2 PUSH1 0x0 DUP1 PUSH2 0x100 EXP DUP2 SLOAD DUP2 PUSH20 0xFFFFFFFFFFFFFFFFFFFFFFFFFFFFFFFFFFFFFFFF MUL NOT AND SWAP1 DUP4 PUSH20 0xFFFFFFFFFFFFFFFFFFFFFFFFFFFFFFFFFFFFFFFF AND MUL OR SWAP1 SSTORE POP DUP1 PUSH1 0x1 PUSH1 0x0 PUSH2 0x100 EXP DUP2 SLOAD DUP2 PUSH20 0xFFFFFFFFFFFFFFFFFFFFFFFFFFFFFFFFFFFFFFFF MUL NOT AND SWAP1 DUP4 PUSH20 0xFFFFFFFFFFFFFFFFFFFFFFFFFFFFFFFFFFFFFFFF AND MUL OR SWAP1 SSTORE POP POP POP POP PUSH3 0x1F8 JUMP JUMPDEST PUSH1 0x0 DUP2 MLOAD SWAP1 POP PUSH3 0x109 DUP2 PUSH3 0x1C4 JUMP JUMPDEST SWAP3 SWAP2 POP POP JUMP JUMPDEST PUSH1 0x0 DUP2 MLOAD SWAP1 POP PUSH3 0x120 DUP2 PUSH3 0x1DE JUMP JUMPDEST SWAP3 SWAP2 POP POP JUMP JUMPDEST PUSH1 0x0 DUP1 PUSH1 0x0 PUSH1 0x60 DUP5 DUP7 SUB SLT ISZERO PUSH3 0x13C JUMPI PUSH1 0x0 DUP1 REVERT JUMPDEST PUSH1 0x0 PUSH3 0x14C DUP7 DUP3 DUP8 ADD PUSH3 0x10F JUMP JUMPDEST SWAP4 POP POP PUSH1 0x20 PUSH3 0x15F DUP7 DUP3 DUP8 ADD PUSH3 0xF8 JUMP JUMPDEST SWAP3 POP POP PUSH1 0x40 PUSH3 0x172 DUP7 DUP3 DUP8 ADD PUSH3 0xF8 JUMP JUMPDEST SWAP2 POP POP SWAP3 POP SWAP3 POP SWAP3 JUMP JUMPDEST PUSH1 0x0 PUSH3 0x189 DUP3 PUSH3 0x1A4 JUMP JUMPDEST SWAP1 POP SWAP2 SWAP1 POP JUMP JUMPDEST PUSH1 0x0 PUSH3 0x19D DUP3 PUSH3 0x17C JUMP JUMPDEST SWAP1 POP SWAP2 SWAP1 POP JUMP JUMPDEST PUSH1 0x0 PUSH20 0xFFFFFFFFFFFFFFFFFFFFFFFFFFFFFFFFFFFFFFFF DUP3 AND SWAP1 POP SWAP2 SWAP1 POP JUMP JUMPDEST PUSH3 0x1CF DUP2 PUSH3 0x17C JUMP JUMPDEST DUP2 EQ PUSH3 0x1DB JUMPI PUSH1 0x0 DUP1 REVERT JUMPDEST POP JUMP JUMPDEST PUSH3 0x1E9 DUP2 PUSH3 0x190 JUMP JUMPDEST DUP2 EQ PUSH3 0x1F5 JUMPI PUSH1 0x0 DUP1 REVERT JUMPDEST POP JUMP JUMPDEST PUSH1 0x80 MLOAD PUSH1 0x60 SHR PUSH2 0xD7E PUSH3 0x225 PUSH1 0x0 CODECOPY DUP1 PUSH2 0x192 MSTORE DUP1 PUSH2 0x234 MSTORE DUP1 PUSH2 0x281 MSTORE DUP1 PUSH2 0x3CE MSTORE POP PUSH2 0xD7E PUSH1 0x0 RETURN INVALID PUSH1 0x80 PUSH1 0x40 MSTORE CALLVALUE DUP1 ISZERO PUSH2 0x10 JUMPI PUSH1 0x0 DUP1 REVERT JUMPDEST POP PUSH1 0x4 CALLDATASIZE LT PUSH2 0x62 JUMPI PUSH1 0x0 CALLDATALOAD PUSH1 0xE0 SHR DUP1 PUSH4 0x89FE6AA EQ PUSH2 0x67 JUMPI DUP1 PUSH4 0xFC63D10 EQ PUSH2 0x85 JUMPI DUP1 PUSH4 0x150B7A02 EQ PUSH2 0xA3 JUMPI DUP1 PUSH4 0x5F64B55B EQ PUSH2 0xD3 JUMPI DUP1 PUSH4 0xB44A2722 EQ PUSH2 0xF1 JUMPI DUP1 PUSH4 0xF058EBEE EQ PUSH2 0x10F JUMPI JUMPDEST PUSH1 0x0 DUP1 REVERT JUMPDEST PUSH2 0x6F PUSH2 0x12B JUMP JUMPDEST PUSH1 0x40 MLOAD PUSH2 0x7C SWAP2 SWAP1 PUSH2 0xC24 JUMP JUMPDEST PUSH1 0x40 MLOAD DUP1 SWAP2 SUB SWAP1 RETURN JUMPDEST PUSH2 0x8D PUSH2 0x131 JUMP JUMPDEST PUSH1 0x40 MLOAD PUSH2 0x9A SWAP2 SWAP1 PUSH2 0xBB7 JUMP JUMPDEST PUSH1 0x40 MLOAD DUP1 SWAP2 SUB SWAP1 RETURN JUMPDEST PUSH2 0xBD PUSH1 0x4 DUP1 CALLDATASIZE SUB DUP2 ADD SWAP1 PUSH2 0xB8 SWAP2 SWAP1 PUSH2 0x93F JUMP JUMPDEST PUSH2 0x155 JUMP JUMPDEST PUSH1 0x40 MLOAD PUSH2 0xCA SWAP2 SWAP1 PUSH2 0xBD2 JUMP JUMPDEST PUSH1 0x40 MLOAD DUP1 SWAP2 SUB SWAP1 RETURN JUMPDEST PUSH2 0xDB PUSH2 0x16A JUMP JUMPDEST PUSH1 0x40 MLOAD PUSH2 0xE8 SWAP2 SWAP1 PUSH2 0xBB7 JUMP JUMPDEST PUSH1 0x40 MLOAD DUP1 SWAP2 SUB SWAP1 RETURN JUMPDEST PUSH2 0xF9 PUSH2 0x190 JUMP JUMPDEST PUSH1 0x40 MLOAD PUSH2 0x106 SWAP2 SWAP1 PUSH2 0xBED JUMP JUMPDEST PUSH1 0x40 MLOAD DUP1 SWAP2 SUB SWAP1 RETURN JUMPDEST PUSH2 0x129 PUSH1 0x4 DUP1 CALLDATASIZE SUB DUP2 ADD SWAP1 PUSH2 0x124 SWAP2 SWAP1 PUSH2 0xA22 JUMP JUMPDEST PUSH2 0x1B4 JUMP JUMPDEST STOP JUMPDEST PUSH2 0xBB8 DUP2 JUMP JUMPDEST PUSH1 0x0 DUP1 SLOAD SWAP1 PUSH2 0x100 EXP SWAP1 DIV PUSH20 0xFFFFFFFFFFFFFFFFFFFFFFFFFFFFFFFFFFFFFFFF AND DUP2 JUMP JUMPDEST PUSH1 0x0 PUSH4 0x150B7A02 PUSH1 0xE0 SHL SWAP1 POP SWAP6 SWAP5 POP POP POP POP POP JUMP JUMPDEST PUSH1 0x1 PUSH1 0x0 SWAP1 SLOAD SWAP1 PUSH2 0x100 EXP SWAP1 DIV PUSH20 0xFFFFFFFFFFFFFFFFFFFFFFFFFFFFFFFFFFFFFFFF AND DUP2 JUMP JUMPDEST PUSH32 0x0 DUP2 JUMP JUMPDEST PUSH2 0x1E0 PUSH1 0x0 DUP1 SLOAD SWAP1 PUSH2 0x100 EXP SWAP1 DIV PUSH20 0xFFFFFFFFFFFFFFFFFFFFFFFFFFFFFFFFFFFFFFFF AND CALLER ADDRESS DUP6 PUSH2 0x480 JUMP JUMPDEST PUSH2 0x20E PUSH1 0x1 PUSH1 0x0 SWAP1 SLOAD SWAP1 PUSH2 0x100 EXP SWAP1 DIV PUSH20 0xFFFFFFFFFFFFFFFFFFFFFFFFFFFFFFFFFFFFFFFF AND CALLER ADDRESS DUP5 PUSH2 0x480 JUMP JUMPDEST PUSH2 0x259 PUSH1 0x0 DUP1 SLOAD SWAP1 PUSH2 0x100 EXP SWAP1 DIV PUSH20 0xFFFFFFFFFFFFFFFFFFFFFFFFFFFFFFFFFFFFFFFF AND PUSH32 0x0 DUP5 PUSH2 0x6A0 JUMP JUMPDEST PUSH2 0x2A6 PUSH1 0x1 PUSH1 0x0 SWAP1 SLOAD SWAP1 PUSH2 0x100 EXP SWAP1 DIV PUSH20 0xFFFFFFFFFFFFFFFFFFFFFFFFFFFFFFFFFFFFFFFF AND PUSH32 0x0 DUP4 PUSH2 0x6A0 JUMP JUMPDEST PUSH1 0x0 PUSH1 0x40 MLOAD DUP1 PUSH2 0x160 ADD PUSH1 0x40 MSTORE DUP1 PUSH1 0x0 DUP1 SLOAD SWAP1 PUSH2 0x100 EXP SWAP1 DIV PUSH20 0xFFFFFFFFFFFFFFFFFFFFFFFFFFFFFFFFFFFFFFFF AND PUSH20 0xFFFFFFFFFFFFFFFFFFFFFFFFFFFFFFFFFFFFFFFF AND DUP2 MSTORE PUSH1 0x20 ADD PUSH1 0x1 PUSH1 0x0 SWAP1 SLOAD SWAP1 PUSH2 0x100 EXP SWAP1 DIV PUSH20 0xFFFFFFFFFFFFFFFFFFFFFFFFFFFFFFFFFFFFFFFF AND PUSH20 0xFFFFFFFFFFFFFFFFFFFFFFFFFFFFFFFFFFFFFFFF AND DUP2 MSTORE PUSH1 0x20 ADD PUSH2 0xBB8 PUSH3 0xFFFFFF AND DUP2 MSTORE PUSH1 0x20 ADD PUSH32 0xFFFFFFFFFFFFFFFFFFFFFFFFFFFFFFFFFFFFFFFFFFFFFFFFFFFFFFFFFFF27618 PUSH1 0x2 SIGNEXTEND DUP2 MSTORE PUSH1 0x20 ADD PUSH32 0xFFFFFFFFFFFFFFFFFFFFFFFFFFFFFFFFFFFFFFFFFFFFFFFFFFFFFFFFFFF27618 PUSH1 0x0 SUB PUSH1 0x2 SIGNEXTEND DUP2 MSTORE PUSH1 0x20 ADD DUP5 DUP2 MSTORE PUSH1 0x20 ADD DUP4 DUP2 MSTORE PUSH1 0x20 ADD PUSH1 0x0 DUP2 MSTORE PUSH1 0x20 ADD PUSH1 0x0 DUP2 MSTORE PUSH1 0x20 ADD ADDRESS PUSH20 0xFFFFFFFFFFFFFFFFFFFFFFFFFFFFFFFFFFFFFFFF AND DUP2 MSTORE PUSH1 0x20 ADD TIMESTAMP DUP2 MSTORE POP SWAP1 POP PUSH32 0x0 PUSH20 0xFFFFFFFFFFFFFFFFFFFFFFFFFFFFFFFFFFFFFFFF AND PUSH4 0x88316456 DUP3 PUSH1 0x40 MLOAD DUP3 PUSH4 0xFFFFFFFF AND PUSH1 0xE0 SHL DUP2 MSTORE PUSH1 0x4 ADD PUSH2 0x425 SWAP2 SWAP1 PUSH2 0xC08 JUMP JUMPDEST PUSH1 0x80 PUSH1 0x40 MLOAD DUP1 DUP4 SUB DUP2 PUSH1 0x0 DUP8 DUP1 EXTCODESIZE ISZERO DUP1 ISZERO PUSH2 0x43F JUMPI PUSH1 0x0 DUP1 REVERT JUMPDEST POP GAS CALL ISZERO DUP1 ISZERO PUSH2 0x453 JUMPI RETURNDATASIZE PUSH1 0x0 DUP1 RETURNDATACOPY RETURNDATASIZE PUSH1 0x0 REVERT JUMPDEST POP POP POP POP PUSH1 0x40 MLOAD RETURNDATASIZE PUSH1 0x1F NOT PUSH1 0x1F DUP3 ADD AND DUP3 ADD DUP1 PUSH1 0x40 MSTORE POP DUP2 ADD SWAP1 PUSH2 0x477 SWAP2 SWAP1 PUSH2 0x9BF JUMP JUMPDEST POP POP POP POP POP POP POP JUMP JUMPDEST PUSH1 0x0 DUP1 DUP6 PUSH20 0xFFFFFFFFFFFFFFFFFFFFFFFFFFFFFFFFFFFFFFFF AND PUSH4 0x23B872DD PUSH1 0xE0 SHL DUP7 DUP7 DUP7 PUSH1 0x40 MLOAD PUSH1 0x24 ADD DUP1 DUP5 PUSH20 0xFFFFFFFFFFFFFFFFFFFFFFFFFFFFFFFFFFFFFFFF AND DUP2 MSTORE PUSH1 0x20 ADD DUP4 PUSH20 0xFFFFFFFFFFFFFFFFFFFFFFFFFFFFFFFFFFFFFFFF AND DUP2 MSTORE PUSH1 0x20 ADD DUP3 DUP2 MSTORE PUSH1 0x20 ADD SWAP4 POP POP POP POP PUSH1 0x40 MLOAD PUSH1 0x20 DUP2 DUP4 SUB SUB DUP2 MSTORE SWAP1 PUSH1 0x40 MSTORE SWAP1 PUSH28 0xFFFFFFFFFFFFFFFFFFFFFFFFFFFFFFFFFFFFFFFFFFFFFFFFFFFFFFFF NOT AND PUSH1 0x20 DUP3 ADD DUP1 MLOAD PUSH28 0xFFFFFFFFFFFFFFFFFFFFFFFFFFFFFFFFFFFFFFFFFFFFFFFFFFFFFFFF DUP4 DUP2 DUP4 AND OR DUP4 MSTORE POP POP POP POP PUSH1 0x40 MLOAD DUP1 DUP3 DUP1 MLOAD SWAP1 PUSH1 0x20 ADD SWAP1 DUP1 DUP4 DUP4 JUMPDEST PUSH1 0x20 DUP4 LT PUSH2 0x57F JUMPI DUP1 MLOAD DUP3 MSTORE PUSH1 0x20 DUP3 ADD SWAP2 POP PUSH1 0x20 DUP2 ADD SWAP1 POP PUSH1 0x20 DUP4 SUB SWAP3 POP PUSH2 0x55C JUMP JUMPDEST PUSH1 0x1 DUP4 PUSH1 0x20 SUB PUSH2 0x100 EXP SUB DUP1 NOT DUP3 MLOAD AND DUP2 DUP5 MLOAD AND DUP1 DUP3 OR DUP6 MSTORE POP POP POP POP POP POP SWAP1 POP ADD SWAP2 POP POP PUSH1 0x0 PUSH1 0x40 MLOAD DUP1 DUP4 SUB DUP2 PUSH1 0x0 DUP7 GAS CALL SWAP2 POP POP RETURNDATASIZE DUP1 PUSH1 0x0 DUP2 EQ PUSH2 0x5E1 JUMPI PUSH1 0x40 MLOAD SWAP2 POP PUSH1 0x1F NOT PUSH1 0x3F RETURNDATASIZE ADD AND DUP3 ADD PUSH1 0x40 MSTORE RETURNDATASIZE DUP3 MSTORE RETURNDATASIZE PUSH1 0x0 PUSH1 0x20 DUP5 ADD RETURNDATACOPY PUSH2 0x5E6 JUMP JUMPDEST PUSH1 0x60 SWAP2 POP JUMPDEST POP SWAP2 POP SWAP2 POP DUP2 DUP1 ISZERO PUSH2 0x626 JUMPI POP PUSH1 0x0 DUP2 MLOAD EQ DUP1 PUSH2 0x625 JUMPI POP DUP1 DUP1 PUSH1 0x20 ADD SWAP1 MLOAD PUSH1 0x20 DUP2 LT ISZERO PUSH2 0x613 JUMPI PUSH1 0x0 DUP1 REVERT JUMPDEST DUP2 ADD SWAP1 DUP1 DUP1 MLOAD SWAP1 PUSH1 0x20 ADD SWAP1 SWAP3 SWAP2 SWAP1 POP POP POP JUMPDEST JUMPDEST PUSH2 0x698 JUMPI PUSH1 0x40 MLOAD PUSH32 0x8C379A000000000000000000000000000000000000000000000000000000000 DUP2 MSTORE PUSH1 0x4 ADD DUP1 DUP1 PUSH1 0x20 ADD DUP3 DUP2 SUB DUP3 MSTORE PUSH1 0x3 DUP2 MSTORE PUSH1 0x20 ADD DUP1 PUSH32 0x5354460000000000000000000000000000000000000000000000000000000000 DUP2 MSTORE POP PUSH1 0x20 ADD SWAP2 POP POP PUSH1 0x40 MLOAD DUP1 SWAP2 SUB SWAP1 REVERT JUMPDEST POP POP POP POP POP POP JUMP JUMPDEST PUSH1 0x0 DUP1 DUP5 PUSH20 0xFFFFFFFFFFFFFFFFFFFFFFFFFFFFFFFFFFFFFFFF AND PUSH4 0x95EA7B3 PUSH1 0xE0 SHL DUP6 DUP6 PUSH1 0x40 MLOAD PUSH1 0x24 ADD DUP1 DUP4 PUSH20 0xFFFFFFFFFFFFFFFFFFFFFFFFFFFFFFFFFFFFFFFF AND DUP2 MSTORE PUSH1 0x20 ADD DUP3 DUP2 MSTORE PUSH1 0x20 ADD SWAP3 POP POP POP PUSH1 0x40 MLOAD PUSH1 0x20 DUP2 DUP4 SUB SUB DUP2 MSTORE SWAP1 PUSH1 0x40 MSTORE SWAP1 PUSH28 0xFFFFFFFFFFFFFFFFFFFFFFFFFFFFFFFFFFFFFFFFFFFFFFFFFFFFFFFF NOT AND PUSH1 0x20 DUP3 ADD DUP1 MLOAD PUSH28 0xFFFFFFFFFFFFFFFFFFFFFFFFFFFFFFFFFFFFFFFFFFFFFFFFFFFFFFFF DUP4 DUP2 DUP4 AND OR DUP4 MSTORE POP POP POP POP PUSH1 0x40 MLOAD DUP1 DUP3 DUP1 MLOAD SWAP1 PUSH1 0x20 ADD SWAP1 DUP1 DUP4 DUP4 JUMPDEST PUSH1 0x20 DUP4 LT PUSH2 0x781 JUMPI DUP1 MLOAD DUP3 MSTORE PUSH1 0x20 DUP3 ADD SWAP2 POP PUSH1 0x20 DUP2 ADD SWAP1 POP PUSH1 0x20 DUP4 SUB SWAP3 POP PUSH2 0x75E JUMP JUMPDEST PUSH1 0x1 DUP4 PUSH1 0x20 SUB PUSH2 0x100 EXP SUB DUP1 NOT DUP3 MLOAD AND DUP2 DUP5 MLOAD AND DUP1 DUP3 OR DUP6 MSTORE POP POP POP POP POP POP SWAP1 POP ADD SWAP2 POP POP PUSH1 0x0 PUSH1 0x40 MLOAD DUP1 DUP4 SUB DUP2 PUSH1 0x0 DUP7 GAS CALL SWAP2 POP POP RETURNDATASIZE DUP1 PUSH1 0x0 DUP2 EQ PUSH2 0x7E3 JUMPI PUSH1 0x40 MLOAD SWAP2 POP PUSH1 0x1F NOT PUSH1 0x3F RETURNDATASIZE ADD AND DUP3 ADD PUSH1 0x40 MSTORE RETURNDATASIZE DUP3 MSTORE RETURNDATASIZE PUSH1 0x0 PUSH1 0x20 DUP5 ADD RETURNDATACOPY PUSH2 0x7E8 JUMP JUMPDEST PUSH1 0x60 SWAP2 POP JUMPDEST POP SWAP2 POP SWAP2 POP DUP2 DUP1 ISZERO PUSH2 0x828 JUMPI POP PUSH1 0x0 DUP2 MLOAD EQ DUP1 PUSH2 0x827 JUMPI POP DUP1 DUP1 PUSH1 0x20 ADD SWAP1 MLOAD PUSH1 0x20 DUP2 LT ISZERO PUSH2 0x815 JUMPI PUSH1 0x0 DUP1 REVERT JUMPDEST DUP2 ADD SWAP1 DUP1 DUP1 MLOAD SWAP1 PUSH1 0x20 ADD SWAP1 SWAP3 SWAP2 SWAP1 POP POP POP JUMPDEST JUMPDEST PUSH2 0x89A JUMPI PUSH1 0x40 MLOAD PUSH32 0x8C379A000000000000000000000000000000000000000000000000000000000 DUP2 MSTORE PUSH1 0x4 ADD DUP1 DUP1 PUSH1 0x20 ADD DUP3 DUP2 SUB DUP3 MSTORE PUSH1 0x2 DUP2 MSTORE PUSH1 0x20 ADD DUP1 PUSH32 0x5341000000000000000000000000000000000000000000000000000000000000 DUP2 MSTORE POP PUSH1 0x20 ADD SWAP2 POP POP PUSH1 0x40 MLOAD DUP1 SWAP2 SUB SWAP1 REVERT JUMPDEST POP POP POP POP POP JUMP JUMPDEST PUSH1 0x0 DUP2 CALLDATALOAD SWAP1 POP PUSH2 0x8B0 DUP2 PUSH2 0xD03 JUMP JUMPDEST SWAP3 SWAP2 POP POP JUMP JUMPDEST PUSH1 0x0 DUP1 DUP4 PUSH1 0x1F DUP5 ADD SLT PUSH2 0x8C8 JUMPI PUSH1 0x0 DUP1 REVERT JUMPDEST DUP3 CALLDATALOAD SWAP1 POP PUSH8 0xFFFFFFFFFFFFFFFF DUP2 GT ISZERO PUSH2 0x8E1 JUMPI PUSH1 0x0 DUP1 REVERT JUMPDEST PUSH1 0x20 DUP4 ADD SWAP2 POP DUP4 PUSH1 0x1 DUP3 MUL DUP4 ADD GT ISZERO PUSH2 0x8F9 JUMPI PUSH1 0x0 DUP1 REVERT JUMPDEST SWAP3 POP SWAP3 SWAP1 POP JUMP JUMPDEST PUSH1 0x0 DUP2 MLOAD SWAP1 POP PUSH2 0x90F DUP2 PUSH2 0xD1A JUMP JUMPDEST SWAP3 SWAP2 POP POP JUMP JUMPDEST PUSH1 0x0 DUP2 CALLDATALOAD SWAP1 POP PUSH2 0x924 DUP2 PUSH2 0xD31 JUMP JUMPDEST SWAP3 SWAP2 POP POP JUMP JUMPDEST PUSH1 0x0 DUP2 MLOAD SWAP1 POP PUSH2 0x939 DUP2 PUSH2 0xD31 JUMP JUMPDEST SWAP3 SWAP2 POP POP JUMP JUMPDEST PUSH1 0x0 DUP1 PUSH1 0x0 DUP1 PUSH1 0x0 PUSH1 0x80 DUP7 DUP9 SUB SLT ISZERO PUSH2 0x957 JUMPI PUSH1 0x0 DUP1 REVERT JUMPDEST PUSH1 0x0 PUSH2 0x965 DUP9 DUP3 DUP10 ADD PUSH2 0x8A1 JUMP JUMPDEST SWAP6 POP POP PUSH1 0x20 PUSH2 0x976 DUP9 DUP3 DUP10 ADD PUSH2 0x8A1 JUMP JUMPDEST SWAP5 POP POP PUSH1 0x40 PUSH2 0x987 DUP9 DUP3 DUP10 ADD PUSH2 0x915 JUMP JUMPDEST SWAP4 POP POP PUSH1 0x60 DUP7 ADD CALLDATALOAD PUSH8 0xFFFFFFFFFFFFFFFF DUP2 GT ISZERO PUSH2 0x9A4 JUMPI PUSH1 0x0 DUP1 REVERT JUMPDEST PUSH2 0x9B0 DUP9 DUP3 DUP10 ADD PUSH2 0x8B6 JUMP JUMPDEST SWAP3 POP SWAP3 POP POP SWAP3 SWAP6 POP SWAP3 SWAP6 SWAP1 SWAP4 POP JUMP JUMPDEST PUSH1 0x0 DUP1 PUSH1 0x0 DUP1 PUSH1 0x80 DUP6 DUP8 SUB SLT ISZERO PUSH2 0x9D5 JUMPI PUSH1 0x0 DUP1 REVERT JUMPDEST PUSH1 0x0 PUSH2 0x9E3 DUP8 DUP3 DUP9 ADD PUSH2 0x92A JUMP JUMPDEST SWAP5 POP POP PUSH1 0x20 PUSH2 0x9F4 DUP8 DUP3 DUP9 ADD PUSH2 0x900 JUMP JUMPDEST SWAP4 POP POP PUSH1 0x40 PUSH2 0xA05 DUP8 DUP3 DUP9 ADD PUSH2 0x92A JUMP JUMPDEST SWAP3 POP POP PUSH1 0x60 PUSH2 0xA16 DUP8 DUP3 DUP9 ADD PUSH2 0x92A JUMP JUMPDEST SWAP2 POP POP SWAP3 SWAP6 SWAP2 SWAP5 POP SWAP3 POP JUMP JUMPDEST PUSH1 0x0 DUP1 PUSH1 0x40 DUP4 DUP6 SUB SLT ISZERO PUSH2 0xA35 JUMPI PUSH1 0x0 DUP1 REVERT JUMPDEST PUSH1 0x0 PUSH2 0xA43 DUP6 DUP3 DUP7 ADD PUSH2 0x915 JUMP JUMPDEST SWAP3 POP POP PUSH1 0x20 PUSH2 0xA54 DUP6 DUP3 DUP7 ADD PUSH2 0x915 JUMP JUMPDEST SWAP2 POP POP SWAP3 POP SWAP3 SWAP1 POP JUMP JUMPDEST PUSH2 0xA67 DUP2 PUSH2 0xC3F JUMP JUMPDEST DUP3 MSTORE POP POP JUMP JUMPDEST PUSH2 0xA76 DUP2 PUSH2 0xC3F JUMP JUMPDEST DUP3 MSTORE POP POP JUMP JUMPDEST PUSH2 0xA85 DUP2 PUSH2 0xC51 JUMP JUMPDEST DUP3 MSTORE POP POP JUMP JUMPDEST PUSH2 0xA94 DUP2 PUSH2 0xCDF JUMP JUMPDEST DUP3 MSTORE POP POP JUMP JUMPDEST PUSH2 0xAA3 DUP2 PUSH2 0xC7D JUMP JUMPDEST DUP3 MSTORE POP POP JUMP JUMPDEST PUSH2 0x160 DUP3 ADD PUSH1 0x0 DUP3 ADD MLOAD PUSH2 0xAC0 PUSH1 0x0 DUP6 ADD DUP3 PUSH2 0xA5E JUMP JUMPDEST POP PUSH1 0x20 DUP3 ADD MLOAD PUSH2 0xAD3 PUSH1 0x20 DUP6 ADD DUP3 PUSH2 0xA5E JUMP JUMPDEST POP PUSH1 0x40 DUP3 ADD MLOAD PUSH2 0xAE6 PUSH1 0x40 DUP6 ADD DUP3 PUSH2 0xB8A JUMP JUMPDEST POP PUSH1 0x60 DUP3 ADD MLOAD PUSH2 0xAF9 PUSH1 0x60 DUP6 ADD DUP3 PUSH2 0xA9A JUMP JUMPDEST POP PUSH1 0x80 DUP3 ADD MLOAD PUSH2 0xB0C PUSH1 0x80 DUP6 ADD DUP3 PUSH2 0xA9A JUMP JUMPDEST POP PUSH1 0xA0 DUP3 ADD MLOAD PUSH2 0xB1F PUSH1 0xA0 DUP6 ADD DUP3 PUSH2 0xBA8 JUMP JUMPDEST POP PUSH1 0xC0 DUP3 ADD MLOAD PUSH2 0xB32 PUSH1 0xC0 DUP6 ADD DUP3 PUSH2 0xBA8 JUMP JUMPDEST POP PUSH1 0xE0 DUP3 ADD MLOAD PUSH2 0xB45 PUSH1 0xE0 DUP6 ADD DUP3 PUSH2 0xBA8 JUMP JUMPDEST POP PUSH2 0x100 DUP3 ADD MLOAD PUSH2 0xB5A PUSH2 0x100 DUP6 ADD DUP3 PUSH2 0xBA8 JUMP JUMPDEST POP PUSH2 0x120 DUP3 ADD MLOAD PUSH2 0xB6F PUSH2 0x120 DUP6 ADD DUP3 PUSH2 0xA5E JUMP JUMPDEST POP PUSH2 0x140 DUP3 ADD MLOAD PUSH2 0xB84 PUSH2 0x140 DUP6 ADD DUP3 PUSH2 0xBA8 JUMP JUMPDEST POP POP POP POP JUMP JUMPDEST PUSH2 0xB93 DUP2 PUSH2 0xCC6 JUMP JUMPDEST DUP3 MSTORE POP POP JUMP JUMPDEST PUSH2 0xBA2 DUP2 PUSH2 0xCC6 JUMP JUMPDEST DUP3 MSTORE POP POP JUMP JUMPDEST PUSH2 0xBB1 DUP2 PUSH2 0xCD5 JUMP JUMPDEST DUP3 MSTORE POP POP JUMP JUMPDEST PUSH1 0x0 PUSH1 0x20 DUP3 ADD SWAP1 POP PUSH2 0xBCC PUSH1 0x0 DUP4 ADD DUP5 PUSH2 0xA6D JUMP JUMPDEST SWAP3 SWAP2 POP POP JUMP JUMPDEST PUSH1 0x0 PUSH1 0x20 DUP3 ADD SWAP1 POP PUSH2 0xBE7 PUSH1 0x0 DUP4 ADD DUP5 PUSH2 0xA7C JUMP JUMPDEST SWAP3 SWAP2 POP POP JUMP JUMPDEST PUSH1 0x0 PUSH1 0x20 DUP3 ADD SWAP1 POP PUSH2 0xC02 PUSH1 0x0 DUP4 ADD DUP5 PUSH2 0xA8B JUMP JUMPDEST SWAP3 SWAP2 POP POP JUMP JUMPDEST PUSH1 0x0 PUSH2 0x160 DUP3 ADD SWAP1 POP PUSH2 0xC1E PUSH1 0x0 DUP4 ADD DUP5 PUSH2 0xAA9 JUMP JUMPDEST SWAP3 SWAP2 POP POP JUMP JUMPDEST PUSH1 0x0 PUSH1 0x20 DUP3 ADD SWAP1 POP PUSH2 0xC39 PUSH1 0x0 DUP4 ADD DUP5 PUSH2 0xB99 JUMP JUMPDEST SWAP3 SWAP2 POP POP JUMP JUMPDEST PUSH1 0x0 PUSH2 0xC4A DUP3 PUSH2 0xCA6 JUMP JUMPDEST SWAP1 POP SWAP2 SWAP1 POP JUMP JUMPDEST PUSH1 0x0 PUSH32 0xFFFFFFFF00000000000000000000000000000000000000000000000000000000 DUP3 AND SWAP1 POP SWAP2 SWAP1 POP JUMP JUMPDEST PUSH1 0x0 DUP2 PUSH1 0x2 SIGNEXTEND SWAP1 POP SWAP2 SWAP1 POP JUMP JUMPDEST PUSH1 0x0 PUSH16 0xFFFFFFFFFFFFFFFFFFFFFFFFFFFFFFFF DUP3 AND SWAP1 POP SWAP2 SWAP1 POP JUMP JUMPDEST PUSH1 0x0 PUSH20 0xFFFFFFFFFFFFFFFFFFFFFFFFFFFFFFFFFFFFFFFF DUP3 AND SWAP1 POP SWAP2 SWAP1 POP JUMP JUMPDEST PUSH1 0x0 PUSH3 0xFFFFFF DUP3 AND SWAP1 POP SWAP2 SWAP1 POP JUMP JUMPDEST PUSH1 0x0 DUP2 SWAP1 POP SWAP2 SWAP1 POP JUMP JUMPDEST PUSH1 0x0 PUSH2 0xCEA DUP3 PUSH2 0xCF1 JUMP JUMPDEST SWAP1 POP SWAP2 SWAP1 POP JUMP JUMPDEST PUSH1 0x0 PUSH2 0xCFC DUP3 PUSH2 0xCA6 JUMP JUMPDEST SWAP1 POP SWAP2 SWAP1 POP JUMP JUMPDEST PUSH2 0xD0C DUP2 PUSH2 0xC3F JUMP JUMPDEST DUP2 EQ PUSH2 0xD17 JUMPI PUSH1 0x0 DUP1 REVERT JUMPDEST POP JUMP JUMPDEST PUSH2 0xD23 DUP2 PUSH2 0xC8A JUMP JUMPDEST DUP2 EQ PUSH2 0xD2E JUMPI PUSH1 0x0 DUP1 REVERT JUMPDEST POP JUMP JUMPDEST PUSH2 0xD3A DUP2 PUSH2 0xCD5 JUMP JUMPDEST DUP2 EQ PUSH2 0xD45 JUMPI PUSH1 0x0 DUP1 REVERT JUMPDEST POP JUMP INVALID LOG2 PUSH5 0x6970667358 0x22 SLT KECCAK256 EXTCODECOPY PUSH24 0xE3C4635A03A12BCA8704897113B501FF1D77C625EF605564 0xBB 0xB1 0xC9 PUSH21 0xF7C864736F6C634300070600330000000000000000 "
        },
        "methodIdentifiers": {
          "mintNewPosition(uint256,uint256)": "f058ebee",
          "nonfungiblePositionManager()": "b44a2722",
          "onERC721Received(address,address,uint256,bytes)": "150b7a02",
          "poolFee()": "089fe6aa",
          "tokenA()": "0fc63d10",
          "tokenB()": "5f64b55b"
        }
      }
    }
  }
}