{
  "_format": "hh-sol-artifact-1",
  "contractName": "AddLiquidity",
  "sourceName": "contracts/AddLiquidity.sol",
  "abi": [
    {
      "inputs": [
        {
          "internalType": "contract INonfungiblePositionManager",
          "name": "_nonfungiblePositionManager",
          "type": "address"
        },
        {
          "internalType": "address",
          "name": "_tokenA",
          "type": "address"
        },
        {
          "internalType": "address",
          "name": "_tokenB",
          "type": "address"
        }
      ],
      "stateMutability": "nonpayable",
      "type": "constructor"
    },
    {
      "inputs": [
        {
          "internalType": "uint256",
          "name": "amountA",
          "type": "uint256"
        },
        {
          "internalType": "uint256",
          "name": "amountB",
          "type": "uint256"
        }
      ],
      "name": "_addLiquidity",
      "outputs": [],
      "stateMutability": "nonpayable",
      "type": "function"
    },
    {
      "inputs": [],
      "name": "nonfungiblePositionManager",
      "outputs": [
        {
          "internalType": "contract INonfungiblePositionManager",
          "name": "",
          "type": "address"
        }
      ],
      "stateMutability": "view",
      "type": "function"
    },
    {
      "inputs": [
        {
          "internalType": "address",
          "name": "operator",
          "type": "address"
        },
        {
          "internalType": "address",
          "name": "",
          "type": "address"
        },
        {
          "internalType": "uint256",
          "name": "tokenId",
          "type": "uint256"
        },
        {
          "internalType": "bytes",
          "name": "",
          "type": "bytes"
        }
      ],
      "name": "onERC721Received",
      "outputs": [
        {
          "internalType": "bytes4",
          "name": "",
          "type": "bytes4"
        }
      ],
      "stateMutability": "nonpayable",
      "type": "function"
    },
    {
      "inputs": [],
      "name": "poolFee",
      "outputs": [
        {
          "internalType": "uint24",
          "name": "",
          "type": "uint24"
        }
      ],
      "stateMutability": "view",
      "type": "function"
    },
    {
      "inputs": [],
      "name": "tokenA",
      "outputs": [
        {
          "internalType": "address",
          "name": "",
          "type": "address"
        }
      ],
      "stateMutability": "view",
      "type": "function"
    },
    {
      "inputs": [],
      "name": "tokenB",
      "outputs": [
        {
          "internalType": "address",
          "name": "",
          "type": "address"
        }
      ],
      "stateMutability": "view",
      "type": "function"
    }
  ],
  "bytecode": "0x60a06040523480156200001157600080fd5b5060405162000fa338038062000fa3833981810160405281019062000037919062000126565b8273ffffffffffffffffffffffffffffffffffffffff1660808173ffffffffffffffffffffffffffffffffffffffff1660601b81525050816000806101000a81548173ffffffffffffffffffffffffffffffffffffffff021916908373ffffffffffffffffffffffffffffffffffffffff16021790555080600160006101000a81548173ffffffffffffffffffffffffffffffffffffffff021916908373ffffffffffffffffffffffffffffffffffffffff160217905550505050620001f8565b6000815190506200010981620001c4565b92915050565b6000815190506200012081620001de565b92915050565b6000806000606084860312156200013c57600080fd5b60006200014c868287016200010f565b93505060206200015f86828701620000f8565b92505060406200017286828701620000f8565b9150509250925092565b60006200018982620001a4565b9050919050565b60006200019d826200017c565b9050919050565b600073ffffffffffffffffffffffffffffffffffffffff82169050919050565b620001cf816200017c565b8114620001db57600080fd5b50565b620001e98162000190565b8114620001f557600080fd5b50565b60805160601c610d7e6200022560003980610210528061025d52806103aa528061045e5250610d7e6000f3fe608060405234801561001057600080fd5b50600436106100625760003560e01c8063089fe6aa146100675780630fc63d1014610085578063150b7a02146100a35780635f64b55b146100d35780639e8af2af146100f1578063b44a27221461010d575b600080fd5b61006f61012b565b60405161007c9190610c24565b60405180910390f35b61008d610131565b60405161009a9190610bb7565b60405180910390f35b6100bd60048036038101906100b8919061093f565b610155565b6040516100ca9190610bd2565b60405180910390f35b6100db61016a565b6040516100e89190610bb7565b60405180910390f35b61010b60048036038101906101069190610a22565b610190565b005b61011561045c565b6040516101229190610bed565b60405180910390f35b610bb881565b60008054906101000a900473ffffffffffffffffffffffffffffffffffffffff1681565b600063150b7a0260e01b905095945050505050565b600160009054906101000a900473ffffffffffffffffffffffffffffffffffffffff1681565b6101bc60008054906101000a900473ffffffffffffffffffffffffffffffffffffffff16333085610480565b6101ea600160009054906101000a900473ffffffffffffffffffffffffffffffffffffffff16333084610480565b61023560008054906101000a900473ffffffffffffffffffffffffffffffffffffffff167f0000000000000000000000000000000000000000000000000000000000000000846106a0565b610282600160009054906101000a900473ffffffffffffffffffffffffffffffffffffffff167f0000000000000000000000000000000000000000000000000000000000000000836106a0565b600060405180610160016040528060008054906101000a900473ffffffffffffffffffffffffffffffffffffffff1673ffffffffffffffffffffffffffffffffffffffff168152602001600160009054906101000a900473ffffffffffffffffffffffffffffffffffffffff1673ffffffffffffffffffffffffffffffffffffffff168152602001610bb862ffffff1681526020017ffffffffffffffffffffffffffffffffffffffffffffffffffffffffffff2761860020b81526020017ffffffffffffffffffffffffffffffffffffffffffffffffffffffffffff2761860000360020b815260200184815260200183815260200160008152602001600081526020013073ffffffffffffffffffffffffffffffffffffffff1681526020014281525090507f000000000000000000000000000000000000000000000000000000000000000073ffffffffffffffffffffffffffffffffffffffff166388316456826040518263ffffffff1660e01b81526004016104019190610c08565b608060405180830381600087803b15801561041b57600080fd5b505af115801561042f573d6000803e3d6000fd5b505050506040513d601f19601f8201168201806040525081019061045391906109bf565b50505050505050565b7f000000000000000000000000000000000000000000000000000000000000000081565b6000808573ffffffffffffffffffffffffffffffffffffffff166323b872dd60e01b868686604051602401808473ffffffffffffffffffffffffffffffffffffffff1681526020018373ffffffffffffffffffffffffffffffffffffffff1681526020018281526020019350505050604051602081830303815290604052907bffffffffffffffffffffffffffffffffffffffffffffffffffffffff19166020820180517bffffffffffffffffffffffffffffffffffffffffffffffffffffffff83818316178352505050506040518082805190602001908083835b6020831061057f578051825260208201915060208101905060208303925061055c565b6001836020036101000a0380198251168184511680821785525050505050509050019150506000604051808303816000865af19150503d80600081146105e1576040519150601f19603f3d011682016040523d82523d6000602084013e6105e6565b606091505b50915091508180156106265750600081511480610625575080806020019051602081101561061357600080fd5b81019080805190602001909291905050505b5b610698576040517f08c379a00000000000000000000000000000000000000000000000000000000081526004018080602001828103825260038152602001807f535446000000000000000000000000000000000000000000000000000000000081525060200191505060405180910390fd5b505050505050565b6000808473ffffffffffffffffffffffffffffffffffffffff1663095ea7b360e01b8585604051602401808373ffffffffffffffffffffffffffffffffffffffff16815260200182815260200192505050604051602081830303815290604052907bffffffffffffffffffffffffffffffffffffffffffffffffffffffff19166020820180517bffffffffffffffffffffffffffffffffffffffffffffffffffffffff83818316178352505050506040518082805190602001908083835b60208310610781578051825260208201915060208101905060208303925061075e565b6001836020036101000a0380198251168184511680821785525050505050509050019150506000604051808303816000865af19150503d80600081146107e3576040519150601f19603f3d011682016040523d82523d6000602084013e6107e8565b606091505b50915091508180156108285750600081511480610827575080806020019051602081101561081557600080fd5b81019080805190602001909291905050505b5b61089a576040517f08c379a00000000000000000000000000000000000000000000000000000000081526004018080602001828103825260028152602001807f534100000000000000000000000000000000000000000000000000000000000081525060200191505060405180910390fd5b5050505050565b6000813590506108b081610d03565b92915050565b60008083601f8401126108c857600080fd5b8235905067ffffffffffffffff8111156108e157600080fd5b6020830191508360018202830111156108f957600080fd5b9250929050565b60008151905061090f81610d1a565b92915050565b60008135905061092481610d31565b92915050565b60008151905061093981610d31565b92915050565b60008060008060006080868803121561095757600080fd5b6000610965888289016108a1565b9550506020610976888289016108a1565b945050604061098788828901610915565b935050606086013567ffffffffffffffff8111156109a457600080fd5b6109b0888289016108b6565b92509250509295509295909350565b600080600080608085870312156109d557600080fd5b60006109e38782880161092a565b94505060206109f487828801610900565b9350506040610a058782880161092a565b9250506060610a168782880161092a565b91505092959194509250565b60008060408385031215610a3557600080fd5b6000610a4385828601610915565b9250506020610a5485828601610915565b9150509250929050565b610a6781610c3f565b82525050565b610a7681610c3f565b82525050565b610a8581610c51565b82525050565b610a9481610cdf565b82525050565b610aa381610c7d565b82525050565b61016082016000820151610ac06000850182610a5e565b506020820151610ad36020850182610a5e565b506040820151610ae66040850182610b8a565b506060820151610af96060850182610a9a565b506080820151610b0c6080850182610a9a565b5060a0820151610b1f60a0850182610ba8565b5060c0820151610b3260c0850182610ba8565b5060e0820151610b4560e0850182610ba8565b50610100820151610b5a610100850182610ba8565b50610120820151610b6f610120850182610a5e565b50610140820151610b84610140850182610ba8565b50505050565b610b9381610cc6565b82525050565b610ba281610cc6565b82525050565b610bb181610cd5565b82525050565b6000602082019050610bcc6000830184610a6d565b92915050565b6000602082019050610be76000830184610a7c565b92915050565b6000602082019050610c026000830184610a8b565b92915050565b600061016082019050610c1e6000830184610aa9565b92915050565b6000602082019050610c396000830184610b99565b92915050565b6000610c4a82610ca6565b9050919050565b60007fffffffff0000000000000000000000000000000000000000000000000000000082169050919050565b60008160020b9050919050565b60006fffffffffffffffffffffffffffffffff82169050919050565b600073ffffffffffffffffffffffffffffffffffffffff82169050919050565b600062ffffff82169050919050565b6000819050919050565b6000610cea82610cf1565b9050919050565b6000610cfc82610ca6565b9050919050565b610d0c81610c3f565b8114610d1757600080fd5b50565b610d2381610c8a565b8114610d2e57600080fd5b50565b610d3a81610cd5565b8114610d4557600080fd5b5056fea2646970667358221220adc8cafbf548b011a798419f89ef0495adc1598e7f67fa25247ce7ace5ef69ef64736f6c63430007060033",
  "linkReferences": {},
  "deployedLinkReferences": {}
}